:100000008031A62900000B000A342034113420343A
:100010001834203424009513200091115408240032
:1000200091000230951B1B282000911D15280030DF
:100030002400161B01302000A1000800D20124007A
:1000400016141618212820005008D4000A20510840
:10005000D4000A202400161516192C281614161878
:100060002F28013020005007D300D4000A20A0011F
:1000700024001513961596193B282000201C4328B0
:1000800024009612200020184828240096162000EC
:1000900024001616161A4A2811082000A10021086B
:1000A000D200240016151619532820005208A1006A
:1000B0000800D030D000D1011E202108A700D03088
:1000C000D0000130D1001E202108A800D030D0007F
:1000D0000230D1001E2021083F39A9005930AF005D
:1000E0000030B0008031512A08007530B600003071
:1000F000B7008031512A080022000C108C100C111E
:10010000200052080F39D5005508D60056080319AB
:10011000A528013A0319A828033A0319AB28013A84
:100120000319AE28073A0319B128013A0319B42874
:10013000033A0319B728013A0319BA280F3A0319E9
:10014000BD28013A0319C028C3280330A100C528DF
:100150009F30A100C5282530A100C5280D30A10081
:10016000C5289930A100C5284930A100C5284130D3
:10017000A100C5281F30A100C5280130A100C52855
:100180000930A100C528FD30A100A6012108A50065
:100190005308FF3AA505A6012508A600A501F030E1
:1001A000D205520EA0000F30A0052008A504D401EE
:1001B00054080F3C031CF22825080139A000A301B4
:1001C00020082304031DE82822000C11EA2820003F
:1001D00022000C158C148C1003102000A60CA50C0A
:1001E000D40AD82822000C140C1020000800290E74
:1001F000A0000F30A00520080F398038D000D200B1
:10020000D3017C200830BD000130BE008031512A6E
:1002100029080F394038D000003027180130D100AC
:100220005008D2005108D3007C201B30BD000130A3
:10023000BE008031512A280EA0000F30A0052008F2
:100240000F392038D000D200D3017C202C30BD00E3
:100250000130BE008031512A28080F391038D000F3
:10026000D200D3017C20F730BD000030BE008031C9
:10027000512A08004927C921C927A110A1060A004F
:100280000B088B1323009517151400000000891B21
:100290008B1713087F3903198E292000BF00230014
:1002A00011082000C000230012082000C1003F08F0
:1002B000111E582923009A002000400823009100B5
:1002C00020004108230092000B088B13951715148A
:1002D00000000000891B8B17130D140D7F390319C3
:1002E0008E292000BF00230011082000C000230039
:1002F00012082000C1003F08111E7C2923009A002B
:1003000020004008230091002000410823009200B3
:10031000910A0319920A200040292300803120000D
:10032000E329240016141618932920003F08D4004E
:100330000A204008D4000A204108D4000A202400E2
:1003400016151619A12980312000F42972302100D8
:10035000990023009F1510309B0000309C00A630B0
:100360009E0090309D0024001710971097111330B5
:10037000920028309500941714132000A601A501BF
:10038000A701FF30A800A90023008C018E012200E4
:1003900092019101940193017030210099000C3079
:1003A0002000A000A00BD229D52900000030650054
:1003B000670021000E148E143A30230091000130A2
:1003C000920020004029D030D000D1011E20210809
:1003D000BF000030BF1B0130013C031DF429D030A9
:1003E000BF00C001C1019129AA01AC017D30AB0061
:1003F000AE01AD015930AF000030B000B101B30122
:10040000FA30B200B5010130B4007530B6000030EA
:10041000B700B801BA010130B900BC01BB01F73027
:10042000BD000030BE00A40121001508C03903380A
:1004300095000630200095000B110310240DA0003C
:100440000320A200013020070320A3002308850019
:10045000220884000008A200840A0008A000840A80
:100460000008A100840A800A0008A300031D3B2A9B
:10047000840A800A8403840A00082102031D522A88
:1004800020082302031D522A84038001840A80016C
:10049000840AA21B522A013100088A003F31000859
:1004A00082002000A40A03302402031D1D2AA40197
:1004B00015080B1D5D2A2100192A582AFF30A400B7
:0204C0006300D7
:020000040001F9
:04000E00C439FF1ED4
:00000001FF
;PIC16F1823
;CRC=4E6E  CREATED="12-may.-17 18:47"
